:020000003428A2
:100008007E1480312700131D3228003020000E187E
:100018000130F400F930F0000032F00B1028003203
:100028000032F301740803191E2820000E1C1E2834
:10003800F301F30A7308F400740B302820000C193C
:100048002728F1012928F101F10AF201710822009B
:10005800031D8C1603198C12270013117E1009003A
:100068003528F501F601F701F8017E1020003C283B
:100078007E20612022008C16F501F601F701F801B7
:1000880064006300000022008C1E40280130F50740
:100098000030F63DF73DF83DF81B44287808031D6D
:1000A8005F287708031D5F287608031D5F28053041
:1000B8007502031C44288C12442820008C018E01F0
:1000C80022008C018E0123008C018E0121008C12EC
:1000D8000E140C1524008C018E010E1421009513AA
:1000E80020000C08270011151215C03093058B1538
:1000F8008B170800FC302100990519088739383812
:0C01080099001708C1391C389700080046
:020000040001F9
:04000E009CFFFFFE56
:00000001FF
